{
  "contractName": "ForwarderFactory",
  "abi": [
    {
      "anonymous": false,
      "inputs": [
        {
          "indexed": false,
          "internalType": "address",
          "name": "clonedAdress",
          "type": "address"
        }
      ],
      "name": "ForwarderCloned",
      "type": "event"
    },
    {
      "inputs": [
        {
          "internalType": "uint256",
          "name": "",
          "type": "uint256"
        }
      ],
      "name": "listAddressForwarder",
      "outputs": [
        {
          "internalType": "address",
          "name": "",
          "type": "address"
        }
      ],
      "stateMutability": "view",
      "type": "function"
    },
    {
      "inputs": [
        {
          "internalType": "address payable",
          "name": "forwarder",
          "type": "address"
        },
        {
          "internalType": "uint256",
          "name": "salt",
          "type": "uint256"
        }
      ],
      "name": "cloneForwarder",
      "outputs": [
        {
          "internalType": "contract Forwarder",
          "name": "clonedForwarder",
          "type": "address"
        }
      ],
      "stateMutability": "nonpayable",
      "type": "function"
    },
    {
      "inputs": [
        {
          "internalType": "address payable[]",
          "name": "forwarders",
          "type": "address[]"
        },
        {
          "internalType": "address",
          "name": "tokenAddres",
          "type": "address"
        }
      ],
      "name": "flushTokens",
      "outputs": [],
      "stateMutability": "nonpayable",
      "type": "function"
    },
    {
      "inputs": [
        {
          "internalType": "address payable[]",
          "name": "forwarders",
          "type": "address[]"
        }
      ],
      "name": "flushEther",
      "outputs": [],
      "stateMutability": "nonpayable",
      "type": "function"
    }
  ],
  "bytecode": "0x608060405234801561001057600080fd5b506106b0806100206000396000f3fe608060405234801561001057600080fd5b506004361061004c5760003560e01c80636ac427111461005157806396909a79146100c9578063bcebbcd414610181578063fdc2edec14610259575b600080fd5b61009d6004803603604081101561006757600080fd5b81019080803573ffffffffffffffffffffffffffffffffffffffff169060200190929190803590602001909291905050506102b1565b604051808273ffffffffffffffffffffffffffffffffffffffff16815260200191505060405180910390f35b61017f600480360360208110156100df57600080fd5b81019080803590602001906401000000008111156100fc57600080fd5b82018360208201111561010e57600080fd5b8035906020019184602083028401116401000000008311171561013057600080fd5b919080806020026020016040519081016040528093929190818152602001838360200280828437600081840152601f19601f820116905080830192505050505050509192919290505050610481565b005b6102576004803603604081101561019757600080fd5b81019080803590602001906401000000008111156101b457600080fd5b8201836020820111156101c657600080fd5b803590602001918460208302840111640100000000831117156101e857600080fd5b919080806020026020016040519081016040528093929190818152602001838360200280828437600081840152601f19601f820116905080830192505050505050509192919290803573ffffffffffffffffffffffffffffffffffffffff169060200190929190505050610517565b005b6102856004803603602081101561026f57600080fd5b81019080803590602001909291905050506105cf565b604051808273ffffffffffffffffffffffffffffffffffffffff16815260200191505060405180910390f35b6000806102be848461060e565b905060008490508192508273ffffffffffffffffffffffffffffffffffffffff166319ab453c8273ffffffffffffffffffffffffffffffffffffffff1663b269681d6040518163ffffffff1660e01b815260040160206040518083038186803b15801561032a57600080fd5b505afa15801561033e573d6000803e3d6000fd5b505050506040513d602081101561035457600080fd5b81019080805190602001909291905050506040518263ffffffff1660e01b8152600401808273ffffffffffffffffffffffffffffffffffffffff168152602001915050600060405180830381600087803b1580156103b157600080fd5b505af11580156103c5573d6000803e3d6000fd5b505050506000839080600181540180825580915050600190039060005260206000200160009091909190916101000a81548173ffffffffffffffffffffffffffffffffffffffff021916908373ffffffffffffffffffffffffffffffffffffffff1602179055507f5dd8f89d9637eb98e980512c69ed8152bd1abced4c6785ceeb9f7628bd42e80982604051808273ffffffffffffffffffffffffffffffffffffffff16815260200191505060405180910390a1505092915050565b60005b815181101561051357600082828151811061049b57fe5b602002602001015190508073ffffffffffffffffffffffffffffffffffffffff16636b9f96ea6040518163ffffffff1660e01b8152600401600060405180830381600087803b1580156104ed57600080fd5b505af1158015610501573d6000803e3d6000fd5b50505050508080600101915050610484565b5050565b60005b82518110156105ca57600083828151811061053157fe5b602002602001015190508073ffffffffffffffffffffffffffffffffffffffff16633ef13367846040518263ffffffff1660e01b8152600401808273ffffffffffffffffffffffffffffffffffffffff168152602001915050600060405180830381600087803b1580156105a457600080fd5b505af11580156105b8573d6000803e3d6000fd5b5050505050808060010191505061051a565b505050565b600081815481106105df57600080fd5b906000526020600020016000915054906101000a900473ffffffffffffffffffffffffffffffffffffffff1681565b6000808360601b90506040517f3d602d80600a3d3981f3363d3d373d3d3d363d7300000000000000000000000081528160148201527f5af43d82803e903d91602b57fd5bf300000000000000000000000000000000006028820152836037826000f5925050509291505056fea264697066735822122000a6e432eccb85173755fd02d67233ec00bd6b0ec09792561c583e14b6efb6ef64736f6c63430007060033",
  "immutableReferences": {},
  "source": "// SPDX-License-Identifier: MIT\r\npragma solidity >=0.5.0 <0.8.0;\r\nimport \"./Forwarder.sol\";\r\n\r\ncontract ForwarderFactory {\r\n\r\n  event ForwarderCloned(address clonedAdress);\r\n  address[] public  listAddressForwarder;\r\n\r\n  function cloneForwarder(address payable forwarder, uint256 salt) public returns (Forwarder clonedForwarder) {\r\n    address payable clonedAddress = createClone(forwarder, salt);\r\n    Forwarder parentForwarder = Forwarder(forwarder);\r\n    clonedForwarder = Forwarder(clonedAddress);\r\n    clonedForwarder.init(parentForwarder.destination());\r\n    listAddressForwarder.push(payable(clonedForwarder));\r\n    emit ForwarderCloned(clonedAddress);\r\n  }\r\n\r\n  function createClone(address target, uint256 salt) private returns (address payable result) {\r\n    bytes20 targetBytes = bytes20(target);\r\n    assembly {\r\n      let clone := mload(0x40)\r\n      mstore(clone, 0x3d602d80600a3d3981f3363d3d373d3d3d363d73000000000000000000000000)\r\n      mstore(add(clone, 0x14), targetBytes)\r\n      mstore(add(clone, 0x28), 0x5af43d82803e903d91602b57fd5bf30000000000000000000000000000000000)\r\n      result := create2(0, clone, 0x37, salt)\r\n    }\r\n  }\r\n\r\n  function flushTokens(address payable[]  memory forwarders, address tokenAddres) public {\r\n      for (uint index = 0; index < forwarders.length; index++) {\r\n         Forwarder forwarder = Forwarder(forwarders[index]);\r\n         forwarder.flushTokens(tokenAddres);\r\n      }\r\n  }\r\n\r\n  function flushEther(address payable[]  memory forwarders) public {\r\n      for (uint index = 0; index < forwarders.length; index++) {\r\n         Forwarder forwarder = Forwarder(forwarders[index]);\r\n         forwarder.flush();\r\n      }\r\n  }\r\n\r\n}",
  "sourcePath": "C:\\Users\\Admin\\Desktop\\WalletForwarder\\contracts\\ForwarderFactory.sol",
  "compiler": {
    "name": "solc",
    "version": "0.7.6+commit.7338295f.Emscripten.clang"
  },
  "schemaVersion": "3.4.4",
  "updatedAt": "2022-04-27T10:30:20.470Z",
  "devdoc": {
    "kind": "dev",
    "methods": {},
    "version": 1
  },
  "userdoc": {
    "kind": "user",
    "methods": {},
    "version": 1
  }
}