{
  "contractName": "Forwarder",
  "abi": [
    {
      "inputs": [],
      "stateMutability": "payable",
      "type": "constructor"
    },
    {
      "anonymous": false,
      "inputs": [
        {
          "indexed": false,
          "internalType": "address",
          "name": "from",
          "type": "address"
        },
        {
          "indexed": false,
          "internalType": "uint256",
          "name": "value",
          "type": "uint256"
        },
        {
          "indexed": false,
          "internalType": "bytes",
          "name": "data",
          "type": "bytes"
        }
      ],
      "name": "ForwarderDeposited",
      "type": "event"
    },
    {
      "anonymous": false,
      "inputs": [
        {
          "indexed": false,
          "internalType": "address",
          "name": "forwarderAddress",
          "type": "address"
        },
        {
          "indexed": false,
          "internalType": "uint256",
          "name": "value",
          "type": "uint256"
        },
        {
          "indexed": false,
          "internalType": "address",
          "name": "tokenContractAddress",
          "type": "address"
        }
      ],
      "name": "TokensFlushed",
      "type": "event"
    },
    {
      "inputs": [],
      "name": "destination",
      "outputs": [
        {
          "internalType": "address payable",
          "name": "",
          "type": "address"
        }
      ],
      "stateMutability": "view",
      "type": "function"
    },
    {
      "inputs": [],
      "name": "inititalised",
      "outputs": [
        {
          "internalType": "bool",
          "name": "",
          "type": "bool"
        }
      ],
      "stateMutability": "view",
      "type": "function"
    },
    {
      "stateMutability": "payable",
      "type": "receive"
    },
    {
      "inputs": [
        {
          "internalType": "address payable",
          "name": "newDestination",
          "type": "address"
        }
      ],
      "name": "init",
      "outputs": [],
      "stateMutability": "nonpayable",
      "type": "function"
    },
    {
      "inputs": [
        {
          "internalType": "address payable",
          "name": "newDestination",
          "type": "address"
        }
      ],
      "name": "changeDestination",
      "outputs": [],
      "stateMutability": "nonpayable",
      "type": "function"
    },
    {
      "inputs": [
        {
          "internalType": "address",
          "name": "tokenContractAddress",
          "type": "address"
        }
      ],
      "name": "flushTokens",
      "outputs": [],
      "stateMutability": "nonpayable",
      "type": "function"
    },
    {
      "inputs": [],
      "name": "flush",
      "outputs": [],
      "stateMutability": "payable",
      "type": "function"
    },
    {
      "inputs": [
        {
          "internalType": "address",
          "name": "_address",
          "type": "address"
        }
      ],
      "name": "getValueOfAddress",
      "outputs": [
        {
          "internalType": "uint256",
          "name": "",
          "type": "uint256"
        }
      ],
      "stateMutability": "view",
      "type": "function"
    },
    {
      "inputs": [],
      "name": "withdraw",
      "outputs": [],
      "stateMutability": "payable",
      "type": "function"
    }
  ],
  "bytecode": "0x608060405260008060146101000a81548160ff021916908315150217905550336000806101000a81548173ffffffffffffffffffffffffffffffffffffffff021916908373ffffffffffffffffffffffffffffffffffffffff1602179055506001600060146101000a81548160ff02191690831515021790555061090e806100886000396000f3fe60806040526004361061007f5760003560e01c80636b9f96ea1161004e5780636b9f96ea146102795780637b1e7a4414610283578063b269681d146102e8578063c28060a71461032957610177565b806319ab453c1461017c5780633ccfd60b146101cd5780633ef13367146101d75780635e949fa01461022857610177565b366101775760008054906101000a900473ffffffffffffffffffffffffffffffffffffffff1673ffffffffffffffffffffffffffffffffffffffff166108fc349081150290604051600060405180830381858888f193505050501580156100ea573d6000803e3d6000fd5b507f69b31548dea9b3b707b4dff357d326e3e9348b24e7a6080a218a6edeeec48f9b3334600036604051808573ffffffffffffffffffffffffffffffffffffffff168152602001848152602001806020018281038252848482818152602001925080828437600081840152601f19601f8201169050808301925050509550505050505060405180910390a1005b600080fd5b34801561018857600080fd5b506101cb6004803603602081101561019f57600080fd5b81019080803573ffffffffffffffffffffffffffffffffffffffff169060200190929190505050610356565b005b6101d56103c9565b005b3480156101e357600080fd5b50610226600480360360208110156101fa57600080fd5b81019080803573ffffffffffffffffffffffffffffffffffffffff1690602001909291905050506104f0565b005b34801561023457600080fd5b506102776004803603602081101561024b57600080fd5b81019080803573ffffffffffffffffffffffffffffffffffffffff1690602001909291905050506106f6565b005b6102816107fa565b005b34801561028f57600080fd5b506102d2600480360360208110156102a657600080fd5b81019080803573ffffffffffffffffffffffffffffffffffffffff169060200190929190505050610880565b6040518082815260200191505060405180910390f35b3480156102f457600080fd5b506102fd6108a1565b604051808273ffffffffffffffffffffffffffffffffffffffff16815260200191505060405180910390f35b34801561033557600080fd5b5061033e6108c5565b60405180821515815260200191505060405180910390f35b600060149054906101000a900460ff166103c657806000806101000a81548173ffffffffffffffffffffffffffffffffffffffff021916908373ffffffffffffffffffffffffffffffffffffffff1602179055506001600060146101000a81548160ff0219169083151502179055505b50565b60008054906101000a900473ffffffffffffffffffffffffffffffffffffffff1673ffffffffffffffffffffffffffffffffffffffff163373ffffffffffffffffffffffffffffffffffffffff161461048a576040517f08c379a00000000000000000000000000000000000000000000000000000000081526004018080602001828103825260108152602001807f4f6e6c792064657374696e6174696f6e0000000000000000000000000000000081525060200191505060405180910390fd5b60003090503373ffffffffffffffffffffffffffffffffffffffff166108fc8273ffffffffffffffffffffffffffffffffffffffff16319081150290604051600060405180830381858888f193505050501580156104ec573d6000803e3d6000fd5b5050565b600081905060008173ffffffffffffffffffffffffffffffffffffffff166370a08231306040518263ffffffff1660e01b8152600401808273ffffffffffffffffffffffffffffffffffffffff16815260200191505060206040518083038186803b15801561055e57600080fd5b505afa158015610572573d6000803e3d6000fd5b505050506040513d602081101561058857600080fd5b8101908080519060200190929190505050905060008114156105a957600080fd5b8173ffffffffffffffffffffffffffffffffffffffff1663a9059cbb60008054906101000a900473ffffffffffffffffffffffffffffffffffffffff16836040518363ffffffff1660e01b8152600401808373ffffffffffffffffffffffffffffffffffffffff16815260200182815260200192505050602060405180830381600087803b15801561063a57600080fd5b505af115801561064e573d6000803e3d6000fd5b505050506040513d602081101561066457600080fd5b810190808051906020019092919050505061067e57600080fd5b7fb4bdccee2343c0b5e592d459c20eb1fa451c96bf88fb685a11aecda6b4ec76b1308285604051808473ffffffffffffffffffffffffffffffffffffffff1681526020018381526020018273ffffffffffffffffffffffffffffffffffffffff168152602001935050505060405180910390a1505050565b60008054906101000a900473ffffffffffffffffffffffffffffffffffffffff1673ffffffffffffffffffffffffffffffffffffffff163373ffffffffffffffffffffffffffffffffffffffff16146107b7576040517f08c379a00000000000000000000000000000000000000000000000000000000081526004018080602001828103825260108152602001807f4f6e6c792064657374696e6174696f6e0000000000000000000000000000000081525060200191505060405180910390fd5b806000806101000a81548173ffffffffffffffffffffffffffffffffffffffff021916908373ffffffffffffffffffffffffffffffffffffffff16021790555050565b600030905060008054906101000a900473ffffffffffffffffffffffffffffffffffffffff1673ffffffffffffffffffffffffffffffffffffffff166108fc8273ffffffffffffffffffffffffffffffffffffffff16319081150290604051600060405180830381858888f1935050505015801561087c573d6000803e3d6000fd5b5050565b60008173ffffffffffffffffffffffffffffffffffffffff16319050919050565b60008054906101000a900473ffffffffffffffffffffffffffffffffffffffff1681565b600060149054906101000a900460ff168156fea26469706673582212207de6c2e182456af905eac9ff773348c8b86e0d3db2a0fe4ad2e1198ff691f11764736f6c63430007060033",
  "immutableReferences": {},
  "source": "pragma solidity >=0.5.0 <0.8.0;\r\nimport \"./Erc20.sol\";\r\n/**\r\n * Contract that will forward any incoming Ether to the creator of the contract\r\n */\r\ncontract Forwarder {\r\n  // Address to which any funds sent to this contract will be forwarded\r\n  address payable public destination;\r\n  bool public inititalised = false;\r\n\r\n  event ForwarderDeposited(address from, uint value, bytes data);\r\n  event TokensFlushed(address forwarderAddress, uint value, address tokenContractAddress);\r\n\r\n  /**\r\n   * Create the contract, and sets the destination address to that of the creator\r\n   * set initialised true for the default forwarder on normal contract deployment\r\n   */\r\n  constructor() payable {\r\n    destination = msg.sender;\r\n    inititalised = true;\r\n  }\r\n\r\n\r\n  modifier onlyDestination {\r\n    if (msg.sender != destination) {\r\n      revert(\"Only destination\");\r\n    }\r\n    _;\r\n  }\r\n  \r\n  //if forwarder is deployed.. forward the payment straight away\r\n  receive() external payable {\r\n     destination.transfer(msg.value);\r\n     emit ForwarderDeposited(msg.sender, msg.value, msg.data);\r\n  }\r\n\r\n  //init on create2\r\n  function init(address payable newDestination) public {\r\n      if(!inititalised){\r\n          destination = newDestination;\r\n          inititalised = true;\r\n      }\r\n  }\r\n  \r\n  function changeDestination(address payable newDestination) public onlyDestination{\r\n      destination = payable(newDestination);\r\n  }\r\n\r\n  //flush the tokens\r\n  function flushTokens(address tokenContractAddress) public {\r\n    IERC20 instance = IERC20(tokenContractAddress);\r\n    uint256 forwarderBalance = instance.balanceOf(address(this));\r\n    if (forwarderBalance == 0) {\r\n      revert();\r\n    }\r\n    if (!instance.transfer(destination, forwarderBalance)) {\r\n      revert();\r\n    }\r\n    emit TokensFlushed(address(this), forwarderBalance, tokenContractAddress);\r\n  }\r\n\r\n  function flush() payable public {\r\n    address payable thisContract = address(this);\r\n    destination.transfer(thisContract.balance);\r\n  }\r\n\r\n  function getValueOfAddress(address _address) public view returns(uint256){\r\n    return _address.balance;\r\n  }\r\n  \r\n  //simple withdraw instead of flush\r\n  function withdraw() payable external onlyDestination{\r\n      address payable thisContract = address(this);\r\n      msg.sender.transfer(thisContract.balance);\r\n  }\r\n}\r\n",
  "sourcePath": "C:\\Users\\Admin\\Desktop\\WalletForwarder\\contracts\\Forwarder.sol",
  "compiler": {
    "name": "solc",
    "version": "0.7.6+commit.7338295f.Emscripten.clang"
  },
  "schemaVersion": "3.4.4",
  "updatedAt": "2022-04-27T08:21:45.441Z",
  "devdoc": {
    "kind": "dev",
    "methods": {},
    "version": 1
  },
  "userdoc": {
    "kind": "user",
    "methods": {
      "constructor": {
        "notice": "Create the contract, and sets the destination address to that of the creator set initialised true for the default forwarder on normal contract deployment"
      }
    },
    "notice": "Contract that will forward any incoming Ether to the creator of the contract",
    "version": 1
  }
}